{
  "abi": [
    {
      "inputs": [],
      "stateMutability": "nonpayable",
      "type": "constructor"
    },
    {
      "inputs": [],
      "name": "name",
      "outputs": [
        {
          "internalType": "string",
          "name": "",
          "type": "string"
        }
      ],
      "stateMutability": "view",
      "type": "function"
    },
    {
      "inputs": [
        {
          "internalType": "string",
          "name": "_name",
          "type": "string"
        }
      ],
      "name": "updateName",
      "outputs": [],
      "stateMutability": "nonpayable",
      "type": "function"
    }
  ],
  "bytecode": {
    "object": "0x608060405234801561001057600080fd5b5060408051808201909152600d8082526c476f6473706f77657220457a6560981b60209092019182526100459160009161004b565b5061011f565b828054610057906100e4565b90600052602060002090601f01602090048101928261007957600085556100bf565b82601f1061009257805160ff19168380011785556100bf565b828001600101855582156100bf579182015b828111156100bf5782518255916020019190600101906100a4565b506100cb9291506100cf565b5090565b5b808211156100cb57600081556001016100d0565b600181811c908216806100f857607f821691505b6020821081141561011957634e487b7160e01b600052602260045260246000fd5b50919050565b6102b58061012e6000396000f3fe608060405234801561001057600080fd5b50600436106100365760003560e01c806306fdde031461003b57806384da92a714610059575b600080fd5b61004361006e565b60405161005091906101a6565b60405180910390f35b61006c6100673660046101fb565b6100fc565b005b6000805461007b9061026d565b80601f01602080910402602001604051908101604052809291908181526020018280546100a79061026d565b80156100f45780601f106100c9576101008083540402835291602001916100f4565b820191906000526020600020905b8154815290600101906020018083116100d757829003601f168201915b505050505081565b6101086000838361010d565b505050565b8280546101199061026d565b90600052602060002090601f01602090048101928261013b5760008555610181565b82601f106101545782800160ff19823516178555610181565b82800160010185558215610181579182015b82811115610181578235825591602001919060010190610166565b5061018d929150610191565b5090565b5b8082111561018d5760008155600101610192565b600060208083528351808285015260005b818110156101d3578581018301518582016040015282016101b7565b818111156101e5576000604083870101525b50601f01601f1916929092016040019392505050565b6000806020838503121561020e57600080fd5b823567ffffffffffffffff8082111561022657600080fd5b818501915085601f83011261023a57600080fd5b81358181111561024957600080fd5b86602082850101111561025b57600080fd5b60209290920196919550909350505050565b600181811c9082168061028157607f821691505b602082108114156102a257634e487b7160e01b600052602260045260246000fd5b5091905056fea164736f6c634300080a000a",
    "linkReferences": {}
  }
}